{
  "_format": "hh-sol-artifact-1",
  "contractName": "Library",
  "sourceName": "contracts/Library.sol",
  "abi": [
    {
      "anonymous": false,
      "inputs": [
        {
          "indexed": true,
          "internalType": "uint256",
          "name": "id",
          "type": "uint256"
        },
        {
          "indexed": false,
          "internalType": "address",
          "name": "borrower",
          "type": "address"
        }
      ],
      "name": "BookBorrowed",
      "type": "event"
    },
    {
      "anonymous": false,
      "inputs": [
        {
          "indexed": false,
          "internalType": "uint256",
          "name": "id",
          "type": "uint256"
        },
        {
          "indexed": false,
          "internalType": "address",
          "name": "borrower",
          "type": "address"
        }
      ],
      "name": "BookReturned",
      "type": "event"
    },
    {
      "anonymous": false,
      "inputs": [
        {
          "indexed": false,
          "internalType": "uint256",
          "name": "id",
          "type": "uint256"
        },
        {
          "indexed": false,
          "internalType": "string",
          "name": "title",
          "type": "string"
        }
      ],
      "name": "NewBookAdded",
      "type": "event"
    },
    {
      "anonymous": false,
      "inputs": [
        {
          "indexed": false,
          "internalType": "uint256",
          "name": "id",
          "type": "uint256"
        },
        {
          "indexed": false,
          "internalType": "uint256",
          "name": "copies",
          "type": "uint256"
        }
      ],
      "name": "NewCopiesAdded",
      "type": "event"
    },
    {
      "inputs": [
        {
          "internalType": "string",
          "name": "_title",
          "type": "string"
        },
        {
          "internalType": "uint256",
          "name": "_copies",
          "type": "uint256"
        }
      ],
      "name": "addBook",
      "outputs": [],
      "stateMutability": "nonpayable",
      "type": "function"
    },
    {
      "inputs": [
        {
          "internalType": "uint256",
          "name": "_id",
          "type": "uint256"
        }
      ],
      "name": "borrowBook",
      "outputs": [],
      "stateMutability": "nonpayable",
      "type": "function"
    },
    {
      "inputs": [],
      "name": "getAvailableBooks",
      "outputs": [
        {
          "components": [
            {
              "internalType": "uint256",
              "name": "id",
              "type": "uint256"
            },
            {
              "internalType": "string",
              "name": "title",
              "type": "string"
            }
          ],
          "internalType": "struct Library.AvailableBook[]",
          "name": "",
          "type": "tuple[]"
        }
      ],
      "stateMutability": "view",
      "type": "function"
    },
    {
      "inputs": [],
      "name": "owner",
      "outputs": [
        {
          "internalType": "address",
          "name": "",
          "type": "address"
        }
      ],
      "stateMutability": "view",
      "type": "function"
    },
    {
      "inputs": [
        {
          "internalType": "uint256",
          "name": "_id",
          "type": "uint256"
        }
      ],
      "name": "returnBook",
      "outputs": [],
      "stateMutability": "nonpayable",
      "type": "function"
    }
  ],
  "bytecode": "0x608060405234801561001057600080fd5b50336000806101000a81548173ffffffffffffffffffffffffffffffffffffffff021916908373ffffffffffffffffffffffffffffffffffffffff1602179055506118a7806100606000396000f3fe608060405234801561001057600080fd5b50600436106100575760003560e01c8063637a38721461005c5780637e490a9e146100785780638da5cb5b14610094578063ca5140c9146100b2578063d6c084d9146100ce575b600080fd5b61007660048036038101906100719190610dc3565b6100ec565b005b610092600480360381019061008d9190610e23565b6103c1565b005b61009c6105f8565b6040516100a99190611172565b60405180910390f35b6100cc60048036038101906100c79190610e23565b61061c565b005b6100d661084f565b6040516100e3919061118d565b60405180910390f35b3373ffffffffffffffffffffffffffffffffffffffff1660008054906101000a900473ffffffffffffffffffffffffffffffffffffffff1673ffffffffffffffffffffffffffffffffffffffff161461017a576040517f08c379a00000000000000000000000000000000000000000000000000000000081526004016101719061126f565b60405180910390fd5b600081116101bd576040517f08c379a00000000000000000000000000000000000000000000000000000000081526004016101b49061122f565b60405180910390fd5b60005b6001805490508110156102d55783836040516020016101e0929190611142565b604051602081830303815290604052805190602001206001828154811061020a576102096115a9565b5b906000526020600020906003020160000160405160200161022b919061115b565b6040516020818303038152906040528051906020012014156102c257816001828154811061025c5761025b6115a9565b5b9060005260206000209060030201600101600082825461027c9190611399565b925050819055507f4e7fbcc359970a72cdad1ece1300b8b8d9a1a63b3e0fcce89c4db27bcb4c2cf881836040516102b49291906112ea565b60405180910390a1506103bc565b80806102cd906114d3565b9150506101c0565b5060018081600181540180825580915050039060005260206000209050508282600180808054905061030791906113ef565b81548110610318576103176115a9565b5b90600052602060002090600302016000019190610336929190610c9b565b5080600180808054905061034a91906113ef565b8154811061035b5761035a6115a9565b5b9060005260206000209060030201600101819055507f86b447e76b491834cb69eb2a23fccb480f36549da34f97ed20dd3c9a124425d6600180805490506103a291906113ef565b84846040516103b3939291906112b8565b60405180910390a15b505050565b8060006001805490501161040a576040517f08c379a0000000000000000000000000000000000000000000000000000000008152600401610401906111af565b60405180910390fd5b6001808054905061041b91906113ef565b81111561045d576040517f08c379a00000000000000000000000000000000000000000000000000000000081526004016104549061120f565b60405180910390fd5b6104678233610ab2565b156104a7576040517f08c379a000000000000000000000000000000000000000000000000000000000815260040161049e906111ef565b60405180910390fd5b600182815481106104bb576104ba6115a9565b5b906000526020600020906003020160020180549050600183815481106104e4576104e36115a9565b5b90600052602060002090600302016001015411610536576040517f08c379a000000000000000000000000000000000000000000000000000000000815260040161052d906111cf565b60405180910390fd5b6001828154811061054a576105496115a9565b5b9060005260206000209060030201600201339080600181540180825580915050600190039060005260206000200160009091909190916101000a81548173ffffffffffffffffffffffffffffffffffffffff021916908373ffffffffffffffffffffffffffffffffffffffff160217905550817f7534124779d4d1eaf9cabba5f94b2b281856aba81c295cde4c9e69483b04b8cc336040516105ec9190611172565b60405180910390a25050565b60008054906101000a900473ffffffffffffffffffffffffffffffffffffffff1681565b80600060018054905011610665576040517f08c379a000000000000000000000000000000000000000000000000000000000815260040161065c906111af565b60405180910390fd5b6001808054905061067691906113ef565b8111156106b8576040517f08c379a00000000000000000000000000000000000000000000000000000000081526004016106af9061120f565b60405180910390fd5b6106c28233610ab2565b610701576040517f08c379a00000000000000000000000000000000000000000000000000000000081526004016106f89061124f565b60405180910390fd5b60005b60018381548110610718576107176115a9565b5b9060005260206000209060030201600201805490508110156108495760018381548110610748576107476115a9565b5b9060005260206000209060030201600201818154811061076b5761076a6115a9565b5b9060005260206000200160009054906101000a900473ffffffffffffffffffffffffffffffffffffffff1673ffffffffffffffffffffffffffffffffffffffff163373ffffffffffffffffffffffffffffffffffffffff161415610836576107f7600184815481106107e0576107df6115a9565b5b906000526020600020906003020160020182610ba8565b7f8430f3edf8e599216e82e74036a3997b56dda6283ea97e28f330b76e914eef61833360405161082892919061128f565b60405180910390a15061084b565b8080610841906114d3565b915050610704565b505b5050565b60606000805b6001805490508110156108d95760018181548110610876576108756115a9565b5b9060005260206000209060030201600201805490506001828154811061089f5761089e6115a9565b5b90600052602060002090600302016001015411156108c65781806108c2906114d3565b9250505b80806108d1906114d3565b915050610855565b5060008167ffffffffffffffff8111156108f6576108f56115d8565b5b60405190808252806020026020018201604052801561092f57816020015b61091c610d21565b8152602001906001900390816109145790505b5090506000915060005b600180549050811015610aa95760006001828154811061095c5761095b6115a9565b5b90600052602060002090600302016002018054905060018381548110610985576109846115a9565b5b9060005260206000209060030201600101546109a191906113ef565b1115610a96576040518060400160405280828152602001600183815481106109cc576109cb6115a9565b5b906000526020600020906003020160000180546109e8906114a1565b80601f0160208091040260200160405190810160405280929190818152602001828054610a14906114a1565b8015610a615780601f10610a3657610100808354040283529160200191610a61565b820191906000526020600020905b815481529060010190602001808311610a4457829003601f168201915b5050505050815250828481518110610a7c57610a7b6115a9565b5b60200260200101819052508280610a92906114d3565b9350505b8080610aa1906114d3565b915050610939565b50809250505090565b600080600090505b60018481548110610ace57610acd6115a9565b5b906000526020600020906003020160020180549050811015610b9c5760018481548110610afe57610afd6115a9565b5b90600052602060002090600302016002018181548110610b2157610b206115a9565b5b9060005260206000200160009054906101000a900473ffffffffffffffffffffffffffffffffffffffff1673ffffffffffffffffffffffffffffffffffffffff168373ffffffffffffffffffffffffffffffffffffffff161415610b89576001915050610ba2565b8080610b94906114d3565b915050610aba565b50600090505b92915050565b8160018380549050610bba91906113ef565b81548110610bcb57610bca6115a9565b5b9060005260206000200160009054906101000a900473ffffffffffffffffffffffffffffffffffffffff16828281548110610c0957610c086115a9565b5b9060005260206000200160006101000a81548173ffffffffffffffffffffffffffffffffffffffff021916908373ffffffffffffffffffffffffffffffffffffffff16021790555081805480610c6257610c6161157a565b5b6001900381819060005260206000200160006101000a81549073ffffffffffffffffffffffffffffffffffffffff021916905590555050565b828054610ca7906114a1565b90600052602060002090601f016020900481019282610cc95760008555610d10565b82601f10610ce257803560ff1916838001178555610d10565b82800160010185558215610d10579182015b82811115610d0f578235825591602001919060010190610cf4565b5b509050610d1d9190610d3b565b5090565b604051806040016040528060008152602001606081525090565b5b80821115610d54576000816000905550600101610d3c565b5090565b60008083601f840112610d6e57610d6d61160c565b5b8235905067ffffffffffffffff811115610d8b57610d8a611607565b5b602083019150836001820283011115610da757610da6611611565b5b9250929050565b600081359050610dbd8161185a565b92915050565b600080600060408486031215610ddc57610ddb61161b565b5b600084013567ffffffffffffffff811115610dfa57610df9611616565b5b610e0686828701610d58565b93509350506020610e1986828701610dae565b9150509250925092565b600060208284031215610e3957610e3861161b565b5b6000610e4784828501610dae565b91505092915050565b6000610e5c83836110e7565b905092915050565b610e6d81611423565b82525050565b6000610e7e82611338565b610e88818561135b565b935083602082028501610e9a85611313565b8060005b85811015610ed65784840389528151610eb78582610e50565b9450610ec28361134e565b925060208a01995050600181019050610e9e565b50829750879550505050505092915050565b6000610ef4838561137d565b9350610f0183858461145f565b610f0a83611620565b840190509392505050565b6000610f21838561138e565b9350610f2e83858461145f565b82840190509392505050565b6000610f4582611343565b610f4f818561136c565b9350610f5f81856020860161146e565b610f6881611620565b840191505092915050565b60008154610f80816114a1565b610f8a818661138e565b94506001821660008114610fa55760018114610fb657610fe9565b60ff19831686528186019350610fe9565b610fbf85611323565b60005b83811015610fe157815481890152600182019150602081019050610fc2565b838801955050505b50505092915050565b6000610fff60238361137d565b915061100a82611631565b604082019050919050565b6000611022602a8361137d565b915061102d82611680565b604082019050919050565b600061104560308361137d565b9150611050826116cf565b604082019050919050565b600061106860338361137d565b91506110738261171e565b604082019050919050565b600061108b60228361137d565b91506110968261176d565b604082019050919050565b60006110ae60228361137d565b91506110b9826117bc565b604082019050919050565b60006110d160228361137d565b91506110dc8261180b565b604082019050919050565b60006040830160008301516110ff6000860182611124565b50602083015184820360208601526111178282610f3a565b9150508091505092915050565b61112d81611455565b82525050565b61113c81611455565b82525050565b600061114f828486610f15565b91508190509392505050565b60006111678284610f73565b915081905092915050565b60006020820190506111876000830184610e64565b92915050565b600060208201905081810360008301526111a78184610e73565b905092915050565b600060208201905081810360008301526111c881610ff2565b9050919050565b600060208201905081810360008301526111e881611015565b9050919050565b6000602082019050818103600083015261120881611038565b9050919050565b600060208201905081810360008301526112288161105b565b9050919050565b600060208201905081810360008301526112488161107e565b9050919050565b60006020820190508181036000830152611268816110a1565b9050919050565b60006020820190508181036000830152611288816110c4565b9050919050565b60006040820190506112a46000830185611133565b6112b16020830184610e64565b9392505050565b60006040820190506112cd6000830186611133565b81810360208301526112e0818486610ee8565b9050949350505050565b60006040820190506112ff6000830185611133565b61130c6020830184611133565b9392505050565b6000819050602082019050919050565b60008190508160005260206000209050919050565b600081519050919050565b600081519050919050565b6000602082019050919050565b600082825260208201905092915050565b600082825260208201905092915050565b600082825260208201905092915050565b600081905092915050565b60006113a482611455565b91506113af83611455565b9250827fffffffffffffffffffffffffffffffffffffffffffffffffffffffffffffffff038211156113e4576113e361151c565b5b828201905092915050565b60006113fa82611455565b915061140583611455565b9250828210156114185761141761151c565b5b828203905092915050565b600061142e82611435565b9050919050565b600073ffffffffffffffffffffffffffffffffffffffff82169050919050565b6000819050919050565b82818337600083830152505050565b60005b8381101561148c578082015181840152602081019050611471565b8381111561149b576000848401525b50505050565b600060028204905060018216806114b957607f821691505b602082108114156114cd576114cc61154b565b5b50919050565b60006114de82611455565b91507fffffffffffffffffffffffffffffffffffffffffffffffffffffffffffffffff8214156115115761151061151c565b5b600182019050919050565b7f4e487b7100000000000000000000000000000000000000000000000000000000600052601160045260246000fd5b7f4e487b7100000000000000000000000000000000000000000000000000000000600052602260045260246000fd5b7f4e487b7100000000000000000000000000000000000000000000000000000000600052603160045260246000fd5b7f4e487b7100000000000000000000000000000000000000000000000000000000600052603260045260246000fd5b7f4e487b7100000000000000000000000000000000000000000000000000000000600052604160045260246000fd5b600080fd5b600080fd5b600080fd5b600080fd5b600080fd5b6000601f19601f8301169050919050565b7f546865206c69627261727920686173206e6f20626f6f6b732063757272656e7460008201527f6c792e0000000000000000000000000000000000000000000000000000000000602082015250565b7f546865726520617265206e6f20636f70696573206f662074686520626f6f6b2060008201527f617661696c61626c652e00000000000000000000000000000000000000000000602082015250565b7f426f6f6b206d7573742062652072657475726e6564206265666f72652069742060008201527f63616e20626520626f72726f7765642e00000000000000000000000000000000602082015250565b7f426f6f6b2077697468207468697320494420646f6573206e6f7420657869737460008201527f20696e2074686520636f6c6c656374696f6e2e00000000000000000000000000602082015250565b7f416464206174206c65617374206f6e6520636f7079206f662074686520626f6f60008201527f6b2e000000000000000000000000000000000000000000000000000000000000602082015250565b7f596f7520646f206e6f742068617665207468697320626f6f6b206f6e206c6f6160008201527f6e2e000000000000000000000000000000000000000000000000000000000000602082015250565b7f436f6e7472616374206e6f7420696e766f6b656420627920746865206f776e6560008201527f722e000000000000000000000000000000000000000000000000000000000000602082015250565b61186381611455565b811461186e57600080fd5b5056fea2646970667358221220dcee4e55e57484cb7d7c7c2bc39b0b44db19710106a9b1d2839845add3dde85e64736f6c63430008060033",
  "linkReferences": {},
  "deployedLinkReferences": {}
}